{
  "contractName": "TwitterPoll",
  "abi": [
    {
      "constant": true,
      "inputs": [
        {
          "name": "",
          "type": "uint256"
        }
      ],
      "name": "yesVotes",
      "outputs": [
        {
          "name": "",
          "type": "string"
        }
      ],
      "payable": false,
      "stateMutability": "view",
      "type": "function",
      "signature": "0x2b8343c7"
    },
    {
      "constant": true,
      "inputs": [],
      "name": "question",
      "outputs": [
        {
          "name": "",
          "type": "string"
        }
      ],
      "payable": false,
      "stateMutability": "view",
      "type": "function",
      "signature": "0x3fad9ae0"
    },
    {
      "constant": false,
      "inputs": [],
      "name": "renounceOwnership",
      "outputs": [],
      "payable": false,
      "stateMutability": "nonpayable",
      "type": "function",
      "signature": "0x715018a6"
    },
    {
      "constant": true,
      "inputs": [],
      "name": "owner",
      "outputs": [
        {
          "name": "",
          "type": "address"
        }
      ],
      "payable": false,
      "stateMutability": "view",
      "type": "function",
      "signature": "0x8da5cb5b"
    },
    {
      "constant": true,
      "inputs": [],
      "name": "isOwner",
      "outputs": [
        {
          "name": "",
          "type": "bool"
        }
      ],
      "payable": false,
      "stateMutability": "view",
      "type": "function",
      "signature": "0x8f32d59b"
    },
    {
      "constant": true,
      "inputs": [
        {
          "name": "",
          "type": "uint256"
        }
      ],
      "name": "noVotes",
      "outputs": [
        {
          "name": "",
          "type": "string"
        }
      ],
      "payable": false,
      "stateMutability": "view",
      "type": "function",
      "signature": "0xe28d1349"
    },
    {
      "constant": false,
      "inputs": [
        {
          "name": "newOwner",
          "type": "address"
        }
      ],
      "name": "transferOwnership",
      "outputs": [],
      "payable": false,
      "stateMutability": "nonpayable",
      "type": "function",
      "signature": "0xf2fde38b"
    },
    {
      "inputs": [
        {
          "name": "_question",
          "type": "string"
        }
      ],
      "payable": false,
      "stateMutability": "nonpayable",
      "type": "constructor",
      "signature": "constructor"
    },
    {
      "anonymous": false,
      "inputs": [
        {
          "indexed": true,
          "name": "previousOwner",
          "type": "address"
        }
      ],
      "name": "OwnershipRenounced",
      "type": "event",
      "signature": "0xf8df31144d9c2f0f6b59d69b8b98abd5459d07f2742c4df920b25aae33c64820"
    },
    {
      "anonymous": false,
      "inputs": [
        {
          "indexed": true,
          "name": "previousOwner",
          "type": "address"
        },
        {
          "indexed": true,
          "name": "newOwner",
          "type": "address"
        }
      ],
      "name": "OwnershipTransferred",
      "type": "event",
      "signature": "0x8be0079c531659141344cd1fd0a4f28419497f9722a3daafe3b4186f6b6457e0"
    },
    {
      "constant": false,
      "inputs": [
        {
          "name": "name",
          "type": "string"
        }
      ],
      "name": "voteYes",
      "outputs": [],
      "payable": false,
      "stateMutability": "nonpayable",
      "type": "function",
      "signature": "0xc31ad7dc"
    },
    {
      "constant": false,
      "inputs": [
        {
          "name": "_yesVotes",
          "type": "string[]"
        },
        {
          "name": "_noVotes",
          "type": "string[]"
        }
      ],
      "name": "submitVotes",
      "outputs": [],
      "payable": false,
      "stateMutability": "nonpayable",
      "type": "function",
      "signature": "0xa797c02d"
    },
    {
      "constant": true,
      "inputs": [],
      "name": "getYesVotes",
      "outputs": [
        {
          "name": "",
          "type": "string[]"
        }
      ],
      "payable": false,
      "stateMutability": "view",
      "type": "function",
      "signature": "0xaddace62"
    },
    {
      "constant": true,
      "inputs": [],
      "name": "getNoVotes",
      "outputs": [
        {
          "name": "",
          "type": "string[]"
        }
      ],
      "payable": false,
      "stateMutability": "view",
      "type": "function",
      "signature": "0xe5920ab5"
    }
  ],
  "bytecode": "0x60806040523480156200001157600080fd5b506040516200122c3803806200122c8339810180604052620000379190810190620001a4565b336000806101000a81548173ffffffffffffffffffffffffffffffffffffffff021916908373ffffffffffffffffffffffffffffffffffffffff16021790555080600190805190602001906200008f92919062000097565b50506200027a565b828054600181600116156101000203166002900490600052602060002090601f016020900481019282601f10620000da57805160ff19168380011785556200010b565b828001600101855582156200010b579182015b828111156200010a578251825591602001919060010190620000ed565b5b5090506200011a91906200011e565b5090565b6200014391905b808211156200013f57600081600090555060010162000125565b5090565b90565b600082601f83011215156200015a57600080fd5b8151620001716200016b8262000217565b620001e9565b915080825260208301602083018583830111156200018e57600080fd5b6200019b83828462000244565b50505092915050565b600060208284031215620001b757600080fd5b600082015167ffffffffffffffff811115620001d257600080fd5b620001e08482850162000146565b91505092915050565b6000604051905081810181811067ffffffffffffffff821117156200020d57600080fd5b8060405250919050565b600067ffffffffffffffff8211156200022f57600080fd5b601f19601f8301169050602081019050919050565b60005b838110156200026457808201518184015260208101905062000247565b8381111562000274576000848401525b50505050565b610fa2806200028a6000396000f3fe6080604052600436106100af576000357c0100000000000000000000000000000000000000000000000000000000900463ffffffff1680632b8343c7146100b45780633fad9ae0146100f1578063715018a61461011c5780638da5cb5b146101335780638f32d59b1461015e578063a797c02d14610189578063addace62146101b2578063c31ad7dc146101dd578063e28d134914610206578063e5920ab514610243578063f2fde38b1461026e575b600080fd5b3480156100c057600080fd5b506100db60048036036100d69190810190610c79565b610297565b6040516100e89190610dbc565b60405180910390f35b3480156100fd57600080fd5b50610106610352565b6040516101139190610dbc565b60405180910390f35b34801561012857600080fd5b506101316103f0565b005b34801561013f57600080fd5b506101486104aa565b6040516101559190610d64565b60405180910390f35b34801561016a57600080fd5b506101736104d3565b6040516101809190610da1565b60405180910390f35b34801561019557600080fd5b506101b060048036036101ab9190810190610bcc565b61052a565b005b3480156101be57600080fd5b506101c7610556565b6040516101d49190610d7f565b60405180910390f35b3480156101e957600080fd5b5061020460048036036101ff9190810190610c38565b61063f565b005b34801561021257600080fd5b5061022d60048036036102289190810190610c79565b610681565b60405161023a9190610dbc565b60405180910390f35b34801561024f57600080fd5b5061025861073c565b6040516102659190610d7f565b60405180910390f35b34801561027a57600080fd5b5061029560048036036102909190810190610ba3565b610825565b005b6002818154811015156102a657fe5b906000526020600020016000915090508054600181600116156101000203166002900480601f01602080910402602001604051908101604052809291908181526020018280546001816001161561010002031660029004801561034a5780601f1061031f5761010080835404028352916020019161034a565b820191906000526020600020905b81548152906001019060200180831161032d57829003601f168201915b505050505081565b60018054600181600116156101000203166002900480601f0160208091040260200160405190810160405280929190818152602001828054600181600116156101000203166002900480156103e85780601f106103bd576101008083540402835291602001916103e8565b820191906000526020600020905b8154815290600101906020018083116103cb57829003601f168201915b505050505081565b6103f86104d3565b151561040357600080fd5b6000809054906101000a900473ffffffffffffffffffffffffffffffffffffffff1673ffffffffffffffffffffffffffffffffffffffff167ff8df31144d9c2f0f6b59d69b8b98abd5459d07f2742c4df920b25aae33c6482060405160405180910390a260008060006101000a81548173ffffffffffffffffffffffffffffffffffffffff021916908373ffffffffffffffffffffffffffffffffffffffff160217905550565b60008060009054906101000a900473ffffffffffffffffffffffffffffffffffffffff16905090565b60008060009054906101000a900473ffffffffffffffffffffffffffffffffffffffff1673ffffffffffffffffffffffffffffffffffffffff163373ffffffffffffffffffffffffffffffffffffffff1614905090565b61053e82600261084490919063ffffffff16565b61055281600361084490919063ffffffff16565b5050565b60606002805480602002602001604051908101604052809291908181526020016000905b82821015610636578382906000526020600020018054600181600116156101000203166002900480601f0160208091040260200160405190810160405280929190818152602001828054600181600116156101000203166002900480156106225780601f106105f757610100808354040283529160200191610622565b820191906000526020600020905b81548152906001019060200180831161060557829003601f168201915b50505050508152602001906001019061057a565b50505050905090565b600281908060018154018082558091505090600182039060005260206000200160009091929091909150908051906020019061067c9291906109b4565b505050565b60038181548110151561069057fe5b906000526020600020016000915090508054600181600116156101000203166002900480601f0160208091040260200160405190810160405280929190818152602001828054600181600116156101000203166002900480156107345780601f1061070957610100808354040283529160200191610734565b820191906000526020600020905b81548152906001019060200180831161071757829003601f168201915b505050505081565b60606003805480602002602001604051908101604052809291908181526020016000905b8282101561081c578382906000526020600020018054600181600116156101000203166002900480601f0160208091040260200160405190810160405280929190818152602001828054600181600116156101000203166002900480156108085780601f106107dd57610100808354040283529160200191610808565b820191906000526020600020905b8154815290600101906020018083116107eb57829003601f168201915b505050505081526020019060010190610760565b50505050905090565b61082d6104d3565b151561083857600080fd5b610841816108ba565b50565b60008090505b81518110156108b55782828281518110151561086257fe5b9060200190602002015190806001815401808255809150509060018203906000526020600020016000909192909190915090805190602001906108a69291906109b4565b5050808060010191505061084a565b505050565b600073ffffffffffffffffffffffffffffffffffffffff168173ffffffffffffffffffffffffffffffffffffffff16141515156108f657600080fd5b8073ffffffffffffffffffffffffffffffffffffffff166000809054906101000a900473ffffffffffffffffffffffffffffffffffffffff1673ffffffffffffffffffffffffffffffffffffffff167f8be0079c531659141344cd1fd0a4f28419497f9722a3daafe3b4186f6b6457e060405160405180910390a3806000806101000a81548173ffffffffffffffffffffffffffffffffffffffff021916908373ffffffffffffffffffffffffffffffffffffffff16021790555050565b828054600181600116156101000203166002900490600052602060002090601f016020900481019282601f106109f557805160ff1916838001178555610a23565b82800160010185558215610a23579182015b82811115610a22578251825591602001919060010190610a07565b5b509050610a309190610a34565b5090565b610a5691905b80821115610a52576000816000905550600101610a3a565b5090565b90565b6000610a658235610ef9565b905092915050565b600082601f8301121515610a8057600080fd5b8135610a93610a8e82610e0b565b610dde565b9150818183526020840193506020810190508360005b83811015610ad95781358601610abf8882610ae3565b845260208401935060208301925050600181019050610aa9565b5050505092915050565b600082601f8301121515610af657600080fd5b8135610b09610b0482610e33565b610dde565b91508082526020830160208301858383011115610b2557600080fd5b610b30838284610f15565b50505092915050565b600082601f8301121515610b4c57600080fd5b8135610b5f610b5a82610e5f565b610dde565b91508082526020830160208301858383011115610b7b57600080fd5b610b86838284610f15565b50505092915050565b6000610b9b8235610f0b565b905092915050565b600060208284031215610bb557600080fd5b6000610bc384828501610a59565b91505092915050565b60008060408385031215610bdf57600080fd5b600083013567ffffffffffffffff811115610bf957600080fd5b610c0585828601610a6d565b925050602083013567ffffffffffffffff811115610c2257600080fd5b610c2e85828601610a6d565b9150509250929050565b600060208284031215610c4a57600080fd5b600082013567ffffffffffffffff811115610c6457600080fd5b610c7084828501610b39565b91505092915050565b600060208284031215610c8b57600080fd5b6000610c9984828501610b8f565b91505092915050565b610cab81610ebb565b82525050565b6000610cbc82610e98565b80845260208401935083602082028501610cd585610e8b565b60005b84811015610d0e578383038852610cf0838351610d2e565b9250610cfb82610eae565b9150602088019750600181019050610cd8565b508196508694505050505092915050565b610d2881610ecd565b82525050565b6000610d3982610ea3565b808452610d4d816020860160208601610f24565b610d5681610f57565b602085010191505092915050565b6000602082019050610d796000830184610ca2565b92915050565b60006020820190508181036000830152610d998184610cb1565b905092915050565b6000602082019050610db66000830184610d1f565b92915050565b60006020820190508181036000830152610dd68184610d2e565b905092915050565b6000604051905081810181811067ffffffffffffffff82111715610e0157600080fd5b8060405250919050565b600067ffffffffffffffff821115610e2257600080fd5b602082029050602081019050919050565b600067ffffffffffffffff821115610e4a57600080fd5b601f19601f8301169050602081019050919050565b600067ffffffffffffffff821115610e7657600080fd5b601f19601f8301169050602081019050919050565b6000602082019050919050565b600081519050919050565b600081519050919050565b6000602082019050919050565b6000610ec682610ed9565b9050919050565b60008115159050919050565b600073ffffffffffffffffffffffffffffffffffffffff82169050919050565b6000610f0482610ed9565b9050919050565b6000819050919050565b82818337600083830152505050565b60005b83811015610f42578082015181840152602081019050610f27565b83811115610f51576000848401525b50505050565b6000601f19601f830116905091905056fea265627a7a72305820add0016619e3333cb8e2a783b9b1a4872d8b75b6196c3d71523fddaf882ded216c6578706572696d656e74616cf50037",
  "source": "pragma solidity ^0.5.0;\npragma experimental ABIEncoderV2;\nimport \"./utils/ConcatLib.sol\";\nimport \"./openzeppelin-solidity/contracts/ownership/Ownable.sol\";\n\ncontract TwitterPoll is Ownable {\n  using ConcatLib for string[];\n  string public question;\n  string[] public yesVotes;\n  string[] public noVotes;\n\n  constructor(string memory _question) public {\n    question = _question;\n  }\n\n  function voteYes(string memory name) public {\n    yesVotes.push(name);\n  }\n\n  function submitVotes(string[] memory _yesVotes, string[] memory _noVotes) public {\n    yesVotes.concat(_yesVotes);\n    noVotes.concat(_noVotes);\n  }\n\n  function getYesVotes() public view returns (string[] memory){\n    return yesVotes;\n  }\n\n  function getNoVotes() public view returns (string[] memory){\n    return noVotes;\n  }\n}\n",
  "sourcePath": "/Users/masonf/src/do-we-want-a-wall.com/contracts/contracts/TwitterPoll.sol",
  "compiler": {
    "name": "solc",
    "version": "0.5.0+commit.1d4f565a.Emscripten.clang"
  },
  "schemaVersion": "3.0.1",
  "updatedAt": "2019-01-08T05:42:19.362Z",
  "devdoc": {
    "methods": {
      "isOwner()": {
        "return": "true if `msg.sender` is the owner of the contract."
      },
      "owner()": {
        "return": "the address of the owner."
      },
      "renounceOwnership()": {
        "details": "Allows the current owner to relinquish control of the contract."
      },
      "transferOwnership(address)": {
        "details": "Allows the current owner to transfer control of the contract to a newOwner.",
        "params": {
          "newOwner": "The address to transfer ownership to."
        }
      }
    }
  },
  "userdoc": {
    "methods": {
      "renounceOwnership()": {
        "notice": "Renouncing to ownership will leave the contract without an owner. It will not be possible to call the functions with the `onlyOwner` modifier anymore."
      }
    }
  }
}